:100000000C942A000C9447000C9447000C9449006F
:100010000C9447000C9447000C9447000C94470044
:100020000C9447000C9447000C9447000C94470034
:100030000C9447000C9447000C9447000C94470024
:100040000C9447000C9447000C9447000C94470014
:100050000C94470011241FBECFE5D8E0DEBFCDBF12
:1000600010E0A0E6B0E0EEEAF1E002C005900D92EB
:10007000A03AB107D9F720E0A0EAB0E001C01D9294
:10008000A23AB207E1F70E9463000C94D5000C94E9
:1000900000001F920F920FB60F9211242F938F938F
:1000A0009F938091A0009091A10021E082279093DE
:1000B000A1008093A0009F918F912F910F900FBE70
:1000C0000F901F9018958FEF81BB84BB80E28BBF90
:1000D00084B78F7B84BF789440E050E060E070E0AC
:1000E000623371050CF04CC0C0E0C83008F045C068
:1000F00012BAE2B32C2F30E081E090E00C2E02C067
:10010000880F991F0A94E2F78E2B82BB8FEF85BB75
:10011000A0E0A83050F58A2F90E0FC01EE0FFF1F01
:10012000EE0FFF1FEE0FFF1FE05AFF4FE20FF31F0E
:10013000E081E130C1F4B5B3841B950B089687705C
:100140009078992324F40197886F9F6F0196E1E0DE
:10015000F0E08F0102C0000F111F8A95E2F7C8017D
:1001600080958B2385BBAF5FD4CF83EF91E0019760
:10017000F1F700C00000CF5FB8CF6F5F7F4FB0CF07
:100180008091A0009091A100892B09F4A7CF4F5F27
:100190005F4F4770507855230CF0A0CF4150510964
:0E01A000486F5F6F4F5F5F4F99CFF894FFCFAE
:1001AE00000000000000000000010100000101003D
:1001BE000001010000010100000101000001010029
:1001CE000001010000010100000101000001010019
:1001DE000001010101010100000001010101000007
:00000001FF
