:100000000C942A000C9434000C9434000C943400AA
:100010000C9434000C9434000C9434000C94340090
:100020000C9434000C9434000C9434000C94340080
:100030000C9434000C9434000C9434000C94340070
:100040000C9434000C9434000C9434000C94340060
:100050000C94340011241FBECFE5D8E0DEBFCDBF25
:100060000E948B030C9488050C940000672B09F008
:10007000DFC0009721F48BB38E7F8BBB0895813056
:10008000910521F48BB38D7F8BBB08958230910550
:1000900021F48BB38B7F8BBB08958330910521F4C2
:1000A0008BB3877F8BBB08958430910521F48BB38C
:1000B0008F7E8BBB08958530910521F48BB38F7DA6
:1000C0008BBB08958630910521F48BB38F7B8BBB5E
:1000D00008958730910521F48BB38F778BBB0895FA
:1000E0008A30910521F488B38E7F88BB08958B30C8
:1000F000910521F488B38D7F88BB08958C309105DC
:1001000021F488B38B7F88BB08958D30910521F44D
:1001100088B3877F88BB08958E30910521F488B31A
:100120008F7E88BB08958F30910521F488B38F7D31
:1001300088BB08958031910521F488B38F7B88BBFB
:1001400008958131910521F488B38F7788BB089594
:100150008431910521F485B38E7F85BB0895853167
:10016000910521F485B38D7F85BB08958631910576
:1001700021F485B38B7F85BB08958731910521F4E8
:1001800085B3877F85BB08958831910521F485B3B8
:100190008F7E85BB08958931910521F485B38F7DCC
:1001A00085BB08958A31910521F485B38F7B85BB8A
:1001B00008958B31910521F485B38F7785BB089520
:1001C0008E31910521F482B38E7F82BB08958F31E9
:1001D000910521F482B38D7F82BB08958032910511
:1001E00021F482B38B7F82BB08958132910521F483
:1001F00082B3877F82BB08958232910521F482B356
:100200008F7E82BB08958332910521F482B38F7D66
:1002100082BB08958432910521F482B38F7B82BB27
:100220000895859709F0E1C082B38F7782BB089566
:10023000009721F48BB381608BBB089581309105C9
:1002400021F48BB382608BBB08958230910521F439
:100250008BB384608BBB08958330910521F48BB3FD
:1002600088608BBB08958430910521F48BB3806145
:100270008BBB08958530910521F48BB380628BBBD5
:1002800008958630910521F48BB380648BBB08956B
:100290008730910521F48BB380688BBB08958A3039
:1002A000910521F488B3816088BB08958B30910556
:1002B00021F488B3826088BB08958C30910521F4C5
:1002C00088B3846088BB08958D30910521F488B38C
:1002D000886088BB08958E30910521F488B38061D1
:1002E00088BB08958F30910521F488B3806288BB64
:1002F00008958031910521F488B3806488BB089506
:100300008131910521F488B3806888BB08958431D8
:10031000910521F485B3816085BB089585319105F0
:1003200021F485B3826085BB08958631910521F45F
:1003300085B3846085BB08958731910521F485B329
:10034000886085BB08958831910521F485B380616B
:1003500085BB08958931910521F485B3806285BB01
:1003600008958A31910521F485B3806485BB089591
:100370008B31910521F485B3806885BB08958E315A
:10038000910521F482B3816082BB08958F3191057C
:1003900021F482B3826082BB08958032910521F4FA
:1003A00082B3846082BB08958132910521F482B3C7
:1003B000886082BB08958232910521F482B3806106
:1003C00082BB08958332910521F482B3806282BB9F
:1003D00008958432910521F482B3806482BB08952C
:1003E000859719F482B3806882BB0895CF93C82F94
:1003F00080FF07C061E070E082E290E00E9436007A
:1004000006C060E070E082E290E00E943600C1FF2A
:1004100007C061E070E083E290E00E94360006C011
:1004200060E070E083E290E00E943600C2FF07C007
:1004300061E070E084E290E00E94360006C060E077
:1004400070E084E290E00E943600C3FF07C061E0E4
:1004500070E085E290E00E94360006C060E070E047
:1004600085E290E00E943600CF910895CF93C82F87
:1004700060E070E08AE190E00E9436008C2F0E94DC
:10048000F60161E070E08BE190E00E9436008FE9B8
:100490009FE00197F1F700C0000060E070E08BE1A1
:1004A00090E00E9436008FE99FE00197F1F700C0CD
:1004B0000000CF91089580E00E94360281E00E9402
:1004C00036020895CF93813099F480E8860F90E04A
:1004D0009595879595958795959587959595879504
:1004E000C62FCF700E9436028C2F0E94360214C095
:1004F000823091F480EC860F90E0959587959595E4
:1005000087959595879595958795C62FCF700E946D
:1005100036028C2F0E943602CF91089580E00E940F
:10052000F6012FEF89EF90E0215080409040E1F7F5
:1005300000C0000083E00E9436028FE19EE4019734
:10054000F1F700C0000083E00E9436028FED9BEAC5
:100550000197F1F700C0000083E00E94360282E0BC
:100560000E94360282E00E94360288E00E94360233
:1005700080E00E9436028CE00E94360280E00E94F9
:10058000360286E00E9436020895CF93DF93D82F7B
:10059000DF70C82FC07F61E070E08AE190E00E94C8
:1005A00036008C2F90E09595879595958795959534
:1005B0008795959587950E94F60161E070E08BE143
:1005C00090E00E9436008FE99FE00197F1F700C0AC
:1005D000000060E070E08BE190E00E9436008FE95F
:1005E0009FE00197F1F700C000008D2F0E94F601F7
:1005F00061E070E08BE190E00E9436008FE99FE0BF
:100600000197F1F700C0000060E070E08BE190E03E
:100610000E9436008FE99FE00197F1F700C00000CB
:10062000DF91CF9108950F931F93CF93DF938C01A8
:10063000C0E0D0E0F801EC0FFD1F8081882321F09D
:100640000E94C5022196F6CFDF91CF911F910F91A5
:100650000895CF92DF92EF92FF92CF93DF93EC0158
:100660006A017B0120E030E0A901C701B6010E94C8
:10067000060481110BC087E6888381E6898394E6AE
:100680009A8398E69B838C831D823EC020E030E0F5
:1006900048EC52E4C701B6010E94CB040E940B044F
:1006A000CB01188220E030E0009771F0FE01E20FEC
:1006B000F31F6AE070E00E946005805D8083862FF2
:1006C000972F2F5F3F4FF0CF2115310521F480E3A5
:1006D0008883198219C0A9014150510980E090E036
:1006E0008417950774F4DE01A80FB91F6C91FE0101
:1006F000E40FF51F70817C9360830196415051098E
:10070000EFCFC20FD31F1882DF91CF91FF90EF90F0
:10071000DF90CF900895CF93DF93CDB7DEB7E29708
:100720000FB6F894DEBF0FBECDBF8FEF81BB84BB89
:1007300084E487B982E886B90E948E0286B180641B
:1007400086B93699FECF84B165B170E0762F662701
:10075000680F711D072E000C880B990B0E94430433
:1007600020E030E040EA50E40E94CB0420E030E09A
:1007700040E85AE30E94CB04AB01BC018E010F5F3D
:100780001F4FC8010E942903F80101900020E9F7DA
:100790003197CF01801B910B992394F0FC0139967E
:1007A000A1E0B0E0AC0FBD1FA80FB91F2C9141E034
:1007B00050E04C0F5D1FE40FF51F20830197ECCF35
:1007C00086E789838FE68A838CE68B8384E78C8334
:1007D00081E68D8387E68E8385E68F838AE388872B
:1007E00080E289870E945B0261E081E00E946202F0
:1007F000CE0101960E9413035FEF89E698E1515004
:1008000080409040E1F700C0000098CF0E947E0435
:1008100008F481E008950E9412046894B1110C94C8
:10082000C50408950E94AA0488F09F5798F0B92F34
:100830009927B751B0F0E1F0660F771F881F991F15
:100840001AF0BA95C9F714C0B13091F00E94C404EF
:10085000B1E008950C94C404672F782F8827B85FFF
:1008600039F0B93FCCF3869577956795B395D9F76D
:100870003EF490958095709561957F4F8F4F9F4F77
:100880000895E89409C097FB3EF490958095709583
:1008900061957F4F8F4F9F4F9923A9F0F92F96E9CC
:1008A000BB279395F695879577956795B795F11141
:1008B000F8CFFAF4BB0F11F460FF1BC06F5F7F4FDE
:1008C0008F4F9F4F16C0882311F096E911C07723F0
:1008D00021F09EE8872F762F05C0662371F096E8F9
:1008E000862F70E060E02AF09A95660F771F881FC8
:1008F000DAF7880F9695879597F90895990F00086C
:10090000550FAA0BE0E8FEEF16161706E807F907E1
:10091000C0F012161306E407F50798F0621B730B7C
:10092000840B950B39F40A2661F0232B242B252BFD
:1009300021F408950A2609F4A140A6958FEF811DA0
:10094000811D089557FD9058440F551F59F05F3F82
:1009500071F04795880F97FB991F61F09F3F79F0E1
:1009600087950895121613061406551FF2CF469563
:10097000F1DF08C0161617061806991FF1CF8695E5
:100980007105610508940895E894BB2766277727C9
:10099000CB0197F908950E94DE040C944F050E9444
:1009A000410538F00E94480520F0952311F00C9481
:1009B00038050C943E0511240C94C5040E94A20431
:1009C00070F3959FC1F3950F50E0551F629FF001A2
:1009D000729FBB27F00DB11D639FAA27F00DB11DBB
:1009E000AA1F649F6627B00DA11D661F829F222744
:1009F000B00DA11D621F739FB00DA11D621F839FCB
:100A0000A00D611D221F749F3327A00D611D231FA0
:100A1000849F600D211D822F762F6A2F11249F57EE
:100A200050409AF0F1F088234AF0EE0FFF1FBB1FF1
:100A3000661F771F881F91505040A9F79E3F5105B0
:100A400080F00C9438050C94C5045F3FE4F3983EA5
:100A5000D4F3869577956795B795F795E7959F5F5A
:100A6000C1F7FE2B880F911D9695879597F90895EC
:100A700097F99F6780E870E060E008959FEF80EC51
:100A8000089500240A9416161706180609060895F4
:100A900000240A9412161306140605060895092E5A
:100AA0000394000C11F4882352F0BB0F40F4BF2BC9
:100AB00011F460FF04C06F5F7F4F8F4F9F4F089509
:100AC00097FB072E16F4009407D077FD09D00E94FB
:100AD000740507FC05D03EF4909581959F4F0895CD
:100AE000709561957F4F0895AA1BBB1B51E107C00C
:100AF000AA1FBB1FA617B70710F0A61BB70B881FAE
:100B0000991F5A95A9F780959095BC01CD0108953C
:040B1000F894FFCF87
:00000001FF
